{
  "_format": "hh-sol-artifact-1",
  "contractName": "TradeDispute",
  "sourceName": "contracts/TradeDispute.sol",
  "abi": [
    {
      "inputs": [
        {
          "internalType": "address",
          "name": "_energyTrading",
          "type": "address"
        },
        {
          "internalType": "address",
          "name": "_predictionStorage",
          "type": "address"
        },
        {
          "internalType": "address",
          "name": "_arbiter",
          "type": "address"
        }
      ],
      "stateMutability": "nonpayable",
      "type": "constructor"
    },
    {
      "anonymous": false,
      "inputs": [
        {
          "indexed": true,
          "internalType": "uint256",
          "name": "disputeId",
          "type": "uint256"
        },
        {
          "indexed": true,
          "internalType": "uint256",
          "name": "tradeId",
          "type": "uint256"
        },
        {
          "indexed": true,
          "internalType": "address",
          "name": "initiator",
          "type": "address"
        },
        {
          "indexed": false,
          "internalType": "string",
          "name": "reason",
          "type": "string"
        }
      ],
      "name": "DisputeRaised",
      "type": "event"
    },
    {
      "anonymous": false,
      "inputs": [
        {
          "indexed": true,
          "internalType": "uint256",
          "name": "disputeId",
          "type": "uint256"
        },
        {
          "indexed": false,
          "internalType": "enum TradeDispute.DisputeStatus",
          "name": "status",
          "type": "uint8"
        }
      ],
      "name": "DisputeResolved",
      "type": "event"
    },
    {
      "inputs": [],
      "name": "arbiter",
      "outputs": [
        {
          "internalType": "address",
          "name": "",
          "type": "address"
        }
      ],
      "stateMutability": "view",
      "type": "function"
    },
    {
      "inputs": [
        {
          "internalType": "uint256",
          "name": "",
          "type": "uint256"
        }
      ],
      "name": "disputes",
      "outputs": [
        {
          "internalType": "uint256",
          "name": "id",
          "type": "uint256"
        },
        {
          "internalType": "uint256",
          "name": "tradeId",
          "type": "uint256"
        },
        {
          "internalType": "address",
          "name": "initiator",
          "type": "address"
        },
        {
          "internalType": "string",
          "name": "reason",
          "type": "string"
        },
        {
          "internalType": "enum TradeDispute.DisputeStatus",
          "name": "status",
          "type": "uint8"
        },
        {
          "internalType": "uint256",
          "name": "createdAt",
          "type": "uint256"
        },
        {
          "internalType": "uint256",
          "name": "resolvedAt",
          "type": "uint256"
        }
      ],
      "stateMutability": "view",
      "type": "function"
    },
    {
      "inputs": [],
      "name": "energyTrading",
      "outputs": [
        {
          "internalType": "contract EnergyTrading",
          "name": "",
          "type": "address"
        }
      ],
      "stateMutability": "view",
      "type": "function"
    },
    {
      "inputs": [],
      "name": "nextDisputeId",
      "outputs": [
        {
          "internalType": "uint256",
          "name": "",
          "type": "uint256"
        }
      ],
      "stateMutability": "view",
      "type": "function"
    },
    {
      "inputs": [],
      "name": "predictionStorage",
      "outputs": [
        {
          "internalType": "contract PredictionStorage",
          "name": "",
          "type": "address"
        }
      ],
      "stateMutability": "view",
      "type": "function"
    },
    {
      "inputs": [
        {
          "internalType": "uint256",
          "name": "_tradeId",
          "type": "uint256"
        },
        {
          "internalType": "string",
          "name": "_reason",
          "type": "string"
        }
      ],
      "name": "raiseDispute",
      "outputs": [
        {
          "internalType": "uint256",
          "name": "disputeId",
          "type": "uint256"
        }
      ],
      "stateMutability": "nonpayable",
      "type": "function"
    },
    {
      "inputs": [
        {
          "internalType": "uint256",
          "name": "_disputeId",
          "type": "uint256"
        },
        {
          "internalType": "bool",
          "name": "_forBuyer",
          "type": "bool"
        }
      ],
      "name": "resolveDispute",
      "outputs": [],
      "stateMutability": "nonpayable",
      "type": "function"
    },
    {
      "inputs": [
        {
          "internalType": "uint256",
          "name": "_tradeId",
          "type": "uint256"
        },
        {
          "internalType": "bytes",
          "name": "_payload",
          "type": "bytes"
        }
      ],
      "name": "verifyTradeIntegrity",
      "outputs": [
        {
          "internalType": "bool",
          "name": "forecastValid",
          "type": "bool"
        },
        {
          "internalType": "uint256",
          "name": "pgs",
          "type": "uint256"
        }
      ],
      "stateMutability": "view",
      "type": "function"
    }
  ],
  "bytecode": "0x608060405234801561001057600080fd5b50604051610cf5380380610cf583398101604081905261002f9161008d565b600080546001600160a01b039485166001600160a01b0319918216179091556001805493851693821693909317909255600480549190931691161790556100d0565b80516001600160a01b038116811461008857600080fd5b919050565b6000806000606084860312156100a257600080fd5b6100ab84610071565b92506100b960208501610071565b91506100c760408501610071565b90509250925092565b610c16806100df6000396000f3fe608060405234801561001057600080fd5b50600436106100885760003560e01c80635aef573c1161005b5780635aef573c1461010f5780637a23858814610122578063d48571af14610135578063fe25e00a1461015f57600080fd5b80630db399341461008d57806316d167d4146100a957806334b25ee2146100d4578063564a565d146100e9575b600080fd5b61009660025481565b6040519081526020015b60405180910390f35b6001546100bc906001600160a01b031681565b6040516001600160a01b0390911681526020016100a0565b6100e76100e2366004610763565b610172565b005b6100fc6100f7366004610793565b6102b7565b6040516100a097969594939291906107e4565b61009661011d3660046108b7565b61038d565b6000546100bc906001600160a01b031681565b6101486101433660046108b7565b6105e9565b6040805192151583526020830191909152016100a0565b6004546100bc906001600160a01b031681565b6004546001600160a01b031633146101d15760405162461bcd60e51b815260206004820152601860248201527f4f6e6c7920617262697465722063616e207265736f6c7665000000000000000060448201526064015b60405180910390fd5b600082815260036020526040812090600482015460ff1660038111156101f9576101f96107ac565b146102395760405162461bcd60e51b815260206004820152601060248201526f2234b9b83aba32903737ba1037b832b760811b60448201526064016101c8565b81610245576002610248565b60015b60048201805460ff19166001836003811115610266576102666107ac565b0217905550426006820155600481015460405184917f2ffcfee146bc0d5ff304c6b65111a0d485af9456dc64eee7d66ebdcc90b223ea916102aa9160ff1690610903565b60405180910390a2505050565b60036020819052600091825260409091208054600182015460028301549383018054929491936001600160a01b03909216926102f290610917565b80601f016020809104026020016040519081016040528092919081815260200182805461031e90610917565b801561036b5780601f106103405761010080835404028352916020019161036b565b820191906000526020600020905b81548152906001019060200180831161034e57829003601f168201915b5050505060048301546005840154600690940154929360ff9091169290915087565b60008054604051630f362cc760e11b815260048101869052829182916001600160a01b0390911690631e6c598e9060240161010060405180830381865afa1580156103dc573d6000803e3d6000fd5b505050506040513d601f19601f82011682018060405250810190610400919061096d565b97505050505050925050816001600160a01b0316336001600160a01b031614806104325750336001600160a01b038216145b61047e5760405162461bcd60e51b815260206004820152601960248201527f4e6f74206120706172747920746f20746869732074726164650000000000000060448201526064016101c8565b6002805490600061048e836109ed565b9190505592506040518060e00160405280848152602001878152602001336001600160a01b0316815260200186868080601f01602080910402602001604051908101604052809392919081815260200183838082843760009201829052509385525050506020808301829052426040808501919091526060938401839052878352600380835292819020855181559185015160018301558401516002820180546001600160a01b0319166001600160a01b03909216919091179055918301519082019061055b9082610a7b565b50608082015160048201805460ff1916600183600381111561057f5761057f6107ac565b021790555060a0820151816005015560c08201518160060155905050336001600160a01b031686847f23c31c3c42269d2f1541faecb93f9273532cfaa63b3b9cb5ab733358ac289e3b88886040516105d8929190610b64565b60405180910390a450509392505050565b60008054604051630f362cc760e11b815260048101869052829182916001600160a01b0390911690631e6c598e9060240161010060405180830381865afa158015610638573d6000803e3d6000fd5b505050506040513d601f19601f8201168201806040525081019061065c919061096d565b5050600154604051636c51475f60e01b81529497506001600160a01b03169550636c51475f9450610698938793508b92508a9150600401610b80565b602060405180830381865afa1580156106b5573d6000803e3d6000fd5b505050506040513d601f19601f820116820180604052508101906106d99190610ba3565b6001546040516343f1a6a960e11b8152600481018490529194506001600160a01b0316906387e34d5290602401602060405180830381865afa158015610723573d6000803e3d6000fd5b505050506040513d601f19601f820116820180604052508101906107479190610bc7565b915050935093915050565b801515811461076057600080fd5b50565b6000806040838503121561077657600080fd5b82359150602083013561078881610752565b809150509250929050565b6000602082840312156107a557600080fd5b5035919050565b634e487b7160e01b600052602160045260246000fd5b600481106107e057634e487b7160e01b600052602160045260246000fd5b9052565b8781526000602088602084015260018060a01b038816604084015260e0606084015286518060e085015260005b8181101561082e5788810183015185820161010001528201610811565b506101009150600082828601015281601f19601f8301168501019250505061085960808301866107c2565b60a082019390935260c0015295945050505050565b60008083601f84011261088057600080fd5b50813567ffffffffffffffff81111561089857600080fd5b6020830191508360208285010111156108b057600080fd5b9250929050565b6000806000604084860312156108cc57600080fd5b83359250602084013567ffffffffffffffff8111156108ea57600080fd5b6108f68682870161086e565b9497909650939450505050565b6020810161091182846107c2565b92915050565b600181811c9082168061092b57607f821691505b60208210810361094b57634e487b7160e01b600052602260045260246000fd5b50919050565b80516001600160a01b038116811461096857600080fd5b919050565b600080600080600080600080610100898b03121561098a57600080fd5b8851975061099a60208a01610951565b965060408901519550606089015194506080890151935060a08901516109bf81610752565b60c08a01519093506109d081610752565b91506109de60e08a01610951565b90509295985092959890939650565b600060018201610a0d57634e487b7160e01b600052601160045260246000fd5b5060010190565b634e487b7160e01b600052604160045260246000fd5b601f821115610a76576000816000526020600020601f850160051c81016020861015610a535750805b601f850160051c820191505b81811015610a7257828155600101610a5f565b5050505b505050565b815167ffffffffffffffff811115610a9557610a95610a14565b610aa981610aa38454610917565b84610a2a565b602080601f831160018114610ade5760008415610ac65750858301515b600019600386901b1c1916600185901b178555610a72565b600085815260208120601f198616915b82811015610b0d57888601518255948401946001909101908401610aee565b5085821015610b2b5787850151600019600388901b60f8161c191681555b5050505050600190811b01905550565b81835281816020850137506000828201602090810191909152601f909101601f19169091010190565b602081526000610b78602083018486610b3b565b949350505050565b838152604060208201526000610b9a604083018486610b3b565b95945050505050565b600060208284031215610bb557600080fd5b8151610bc081610752565b9392505050565b600060208284031215610bd957600080fd5b505191905056fea2646970667358221220d20dc3870378bfd20f24eec7ba316353c9b2d2eaf3edd07b075c2f3cacfa5c8e64736f6c63430008180033",
  "linkReferences": {},
  "deployedLinkReferences": {}
}