{
  "_format": "hh-sol-artifact-1",
  "contractName": "EnergyTrading",
  "sourceName": "contracts/EnergyTrading.sol",
  "abi": [
    {
      "inputs": [
        {
          "internalType": "address",
          "name": "_predictionStorage",
          "type": "address"
        }
      ],
      "stateMutability": "nonpayable",
      "type": "constructor"
    },
    {
      "anonymous": false,
      "inputs": [
        {
          "indexed": true,
          "internalType": "address",
          "name": "user",
          "type": "address"
        },
        {
          "indexed": false,
          "internalType": "uint256",
          "name": "amount",
          "type": "uint256"
        }
      ],
      "name": "EscrowDeposited",
      "type": "event"
    },
    {
      "anonymous": false,
      "inputs": [
        {
          "indexed": true,
          "internalType": "address",
          "name": "user",
          "type": "address"
        },
        {
          "indexed": false,
          "internalType": "uint256",
          "name": "amount",
          "type": "uint256"
        }
      ],
      "name": "EscrowWithdrawn",
      "type": "event"
    },
    {
      "anonymous": false,
      "inputs": [
        {
          "indexed": true,
          "internalType": "uint256",
          "name": "tradeId",
          "type": "uint256"
        },
        {
          "indexed": false,
          "internalType": "uint256",
          "name": "pgsValue",
          "type": "uint256"
        },
        {
          "indexed": false,
          "internalType": "string",
          "name": "reason",
          "type": "string"
        }
      ],
      "name": "TradeBlocked",
      "type": "event"
    },
    {
      "anonymous": false,
      "inputs": [
        {
          "indexed": true,
          "internalType": "uint256",
          "name": "tradeId",
          "type": "uint256"
        },
        {
          "indexed": true,
          "internalType": "address",
          "name": "seller",
          "type": "address"
        },
        {
          "indexed": false,
          "internalType": "uint256",
          "name": "forecastTimestamp",
          "type": "uint256"
        },
        {
          "indexed": false,
          "internalType": "uint256",
          "name": "energyMWh",
          "type": "uint256"
        },
        {
          "indexed": false,
          "internalType": "uint256",
          "name": "pricePerMWh",
          "type": "uint256"
        }
      ],
      "name": "TradeCreated",
      "type": "event"
    },
    {
      "anonymous": false,
      "inputs": [
        {
          "indexed": true,
          "internalType": "uint256",
          "name": "tradeId",
          "type": "uint256"
        },
        {
          "indexed": true,
          "internalType": "address",
          "name": "buyer",
          "type": "address"
        },
        {
          "indexed": false,
          "internalType": "uint256",
          "name": "pgsAtExecution",
          "type": "uint256"
        }
      ],
      "name": "TradeFilled",
      "type": "event"
    },
    {
      "inputs": [],
      "name": "MIN_TRADE_AMOUNT",
      "outputs": [
        {
          "internalType": "uint256",
          "name": "",
          "type": "uint256"
        }
      ],
      "stateMutability": "view",
      "type": "function"
    },
    {
      "inputs": [],
      "name": "PGS_THRESHOLD",
      "outputs": [
        {
          "internalType": "uint256",
          "name": "",
          "type": "uint256"
        }
      ],
      "stateMutability": "view",
      "type": "function"
    },
    {
      "inputs": [
        {
          "internalType": "uint256",
          "name": "_forecastTimestamp",
          "type": "uint256"
        },
        {
          "internalType": "uint256",
          "name": "_energyMWh",
          "type": "uint256"
        },
        {
          "internalType": "uint256",
          "name": "_pricePerMWh",
          "type": "uint256"
        }
      ],
      "name": "createTrade",
      "outputs": [
        {
          "internalType": "uint256",
          "name": "tradeId",
          "type": "uint256"
        }
      ],
      "stateMutability": "nonpayable",
      "type": "function"
    },
    {
      "inputs": [
        {
          "internalType": "address",
          "name": "",
          "type": "address"
        }
      ],
      "name": "escrowBalance",
      "outputs": [
        {
          "internalType": "uint256",
          "name": "",
          "type": "uint256"
        }
      ],
      "stateMutability": "view",
      "type": "function"
    },
    {
      "inputs": [
        {
          "internalType": "uint256",
          "name": "_tradeId",
          "type": "uint256"
        }
      ],
      "name": "fillTrade",
      "outputs": [],
      "stateMutability": "payable",
      "type": "function"
    },
    {
      "inputs": [
        {
          "internalType": "uint256",
          "name": "_forecastTimestamp",
          "type": "uint256"
        }
      ],
      "name": "isEligible",
      "outputs": [
        {
          "internalType": "bool",
          "name": "",
          "type": "bool"
        }
      ],
      "stateMutability": "view",
      "type": "function"
    },
    {
      "inputs": [],
      "name": "nextTradeId",
      "outputs": [
        {
          "internalType": "uint256",
          "name": "",
          "type": "uint256"
        }
      ],
      "stateMutability": "view",
      "type": "function"
    },
    {
      "inputs": [],
      "name": "predictionStorage",
      "outputs": [
        {
          "internalType": "contract PredictionStorage",
          "name": "",
          "type": "address"
        }
      ],
      "stateMutability": "view",
      "type": "function"
    },
    {
      "inputs": [
        {
          "internalType": "uint256",
          "name": "",
          "type": "uint256"
        }
      ],
      "name": "trades",
      "outputs": [
        {
          "internalType": "uint256",
          "name": "id",
          "type": "uint256"
        },
        {
          "internalType": "address",
          "name": "seller",
          "type": "address"
        },
        {
          "internalType": "uint256",
          "name": "forecastTimestamp",
          "type": "uint256"
        },
        {
          "internalType": "uint256",
          "name": "energyMWh",
          "type": "uint256"
        },
        {
          "internalType": "uint256",
          "name": "pricePerMWh",
          "type": "uint256"
        },
        {
          "internalType": "bool",
          "name": "active",
          "type": "bool"
        },
        {
          "internalType": "bool",
          "name": "filled",
          "type": "bool"
        },
        {
          "internalType": "address",
          "name": "buyer",
          "type": "address"
        }
      ],
      "stateMutability": "view",
      "type": "function"
    },
    {
      "inputs": [],
      "name": "withdrawEscrow",
      "outputs": [],
      "stateMutability": "nonpayable",
      "type": "function"
    }
  ],
  "bytecode": "0x608060405234801561001057600080fd5b50604051610bc6380380610bc683398101604081905261002f91610054565b600080546001600160a01b0319166001600160a01b0392909216919091179055610084565b60006020828403121561006657600080fd5b81516001600160a01b038116811461007d57600080fd5b9392505050565b610b33806100936000396000f3fe6080604052600436106100915760003560e01c806331b7d4131161005957806331b7d4131461020457806355af63531461021f5780635ffe3a3d1461024c5780636cd6e7b214610263578063813ad0831461027657600080fd5b8063053b56c0146100965780630af52133146100cb57806316d167d4146100ef5780631e6c598e14610127578063240db1cd146101e4575b600080fd5b3480156100a257600080fd5b506100b66100b13660046109db565b61028c565b60405190151581526020015b60405180910390f35b3480156100d757600080fd5b506100e16105dc81565b6040519081526020016100c2565b3480156100fb57600080fd5b5060005461010f906001600160a01b031681565b6040516001600160a01b0390911681526020016100c2565b34801561013357600080fd5b5061019a6101423660046109db565b600260208190526000918252604090912080546001820154928201546003830154600484015460059094015492946001600160a01b0390811694929391929160ff808216926101008304909116916201000090041688565b604080519889526001600160a01b0397881660208a015288019590955260608701939093526080860191909152151560a0850152151560c08401521660e0820152610100016100c2565b3480156101f057600080fd5b506100e16101ff3660046109f4565b610304565b34801561021057600080fd5b506100e166038d7ea4c6800081565b34801561022b57600080fd5b506100e161023a366004610a20565b60036020526000908152604090205481565b34801561025857600080fd5b506102616105a8565b005b6102616102713660046109db565b61066d565b34801561028257600080fd5b506100e160015481565b600080546040516343f1a6a960e11b8152600481018490526105dc916001600160a01b0316906387e34d5290602401602060405180830381865afa1580156102d8573d6000803e3d6000fd5b505050506040513d601f19601f820116820180604052508101906102fc9190610a50565b101592915050565b600080831161035a5760405162461bcd60e51b815260206004820152601760248201527f456e65726779206d75737420626520706f73697469766500000000000000000060448201526064015b60405180910390fd5b600082116103a35760405162461bcd60e51b81526020600482015260166024820152755072696365206d75737420626520706f73697469766560501b6044820152606401610351565b600080546040516343f1a6a960e11b8152600481018790526001600160a01b03909116906387e34d5290602401602060405180830381865afa1580156103ed573d6000803e3d6000fd5b505050506040513d601f19601f820116820180604052508101906104119190610a50565b90506105dc81101561047a5760405162461bcd60e51b815260206004820152602c60248201527f5047532062656c6f77207468726573686f6c643a207363686564756c696e672060448201526b6e6f7420656c696769626c6560a01b6064820152608401610351565b6001805490600061048a83610a7f565b909155506040805161010080820183528382523360208084018281528486018c815260608087018d8152608088018d8152600160a08a01818152600060c08c0181815260e08d018281528f83526002808c52928f90209d518e559851938d0180546001600160a01b0319166001600160a01b039586161790559651908c0155925160038b0155905160048a01559051600590980180549351945161ffff1990941698151561ff001916989098179315159096029290921762010000600160b01b0319166201000091909516029390931790935583518a8152928301899052928201879052929450909184917f2245785869ef30e7963765bb4d74cd09d61e13334f2c97be491a4a29a93584ab910160405180910390a3509392505050565b33600090815260036020526040902054806105f95760405162461bcd60e51b81526020600482015260116024820152704e6f20657363726f772062616c616e636560781b6044820152606401610351565b336000818152600360205260408082208290555183156108fc0291849190818181858888f19350505050158015610634573d6000803e3d6000fd5b5060405181815233907f67ba03b899c1b0009c08c2717653a5a03a8730cc17a1a8c0c57b4728991672f39060200160405180910390a250565b6000818152600260205260409020600581015460ff166106c25760405162461bcd60e51b815260206004820152601060248201526f5472616465206e6f742061637469766560801b6044820152606401610351565b6005810154610100900460ff16156107135760405162461bcd60e51b8152602060048201526014602482015273151c98591948185b1c9958591e48199a5b1b195960621b6044820152606401610351565b60018101546001600160a01b031633036107675760405162461bcd60e51b815260206004820152601560248201527443616e6e6f742066696c6c206f776e20747261646560581b6044820152606401610351565b6000805460028301546040516343f1a6a960e11b81526001600160a01b03909216916387e34d529161079f9160040190815260200190565b602060405180830381865afa1580156107bc573d6000803e3d6000fd5b505050506040513d601f19601f820116820180604052508101906107e09190610a50565b90506105dc8110156108a25760058201805460ff1916905560405183907f9ebdd36a46a39796abf1dc57506235e781ccb3f131b9f8a1559114685ca4dace9061086190848152604060208201819052601b908201527f5047532064726f707065642062656c6f77207468726573686f6c640000000000606082015260800190565b60405180910390a2341561089d5760405133903480156108fc02916000818181858888f1935050505015801561089b573d6000803e3d6000fd5b505b505050565b60006103e8836004015484600301546108bb9190610a98565b6108c59190610ab5565b90508034101561090e5760405162461bcd60e51b8152602060048201526014602482015273125b9cdd59999a58da595b9d081c185e5b595b9d60621b6044820152606401610351565b6005830180546201000033026001600160b01b03199091161761010017905560018301546001600160a01b031660009081526003602052604081208054839290610959908490610ad7565b90915550503481101561099e57336108fc6109748334610aea565b6040518115909202916000818181858888f1935050505015801561099c573d6000803e3d6000fd5b505b604051828152339085907f9611a8c4841b81a17b98f08a20f75125e6d225511950cb2a00fd3bf7fb2111bd9060200160405180910390a350505050565b6000602082840312156109ed57600080fd5b5035919050565b600080600060608486031215610a0957600080fd5b505081359360208301359350604090920135919050565b600060208284031215610a3257600080fd5b81356001600160a01b0381168114610a4957600080fd5b9392505050565b600060208284031215610a6257600080fd5b5051919050565b634e487b7160e01b600052601160045260246000fd5b600060018201610a9157610a91610a69565b5060010190565b8082028115828204841417610aaf57610aaf610a69565b92915050565b600082610ad257634e487b7160e01b600052601260045260246000fd5b500490565b80820180821115610aaf57610aaf610a69565b81810381811115610aaf57610aaf610a6956fea2646970667358221220597fa2695943dbc55ef92468e0256e867ba19247f3356311a08c706a02a0744f64736f6c63430008180033",
  "linkReferences": {},
  "deployedLinkReferences": {}
}