{"contracts/EnergyTrading.sol":{"EnergyTrading":{"abi":[{"inputs":[{"internalType":"address","name":"_predictionStorage","type":"address"}],"stateMutability":"nonpayable","type":"constructor"},{"anonymous":false,"inputs":[{"indexed":true,"internalType":"address","name":"user","type":"address"},{"indexed":false,"internalType":"uint256","name":"amount","type":"uint256"}],"name":"EscrowDeposited","type":"event"},{"anonymous":false,"inputs":[{"indexed":true,"internalType":"address","name":"user","type":"address"},{"indexed":false,"internalType":"uint256","name":"amount","type":"uint256"}],"name":"EscrowWithdrawn","type":"event"},{"anonymous":false,"inputs":[{"indexed":true,"internalType":"uint256","name":"tradeId","type":"uint256"},{"indexed":false,"internalType":"uint256","name":"pgsValue","type":"uint256"},{"indexed":false,"internalType":"string","name":"reason","type":"string"}],"name":"TradeBlocked","type":"event"},{"anonymous":false,"inputs":[{"indexed":true,"internalType":"uint256","name":"tradeId","type":"uint256"},{"indexed":true,"internalType":"address","name":"seller","type":"address"},{"indexed":false,"internalType":"uint256","name":"forecastTimestamp","type":"uint256"},{"indexed":false,"internalType":"uint256","name":"energyMWh","type":"uint256"},{"indexed":false,"internalType":"uint256","name":"pricePerMWh","type":"uint256"}],"name":"TradeCreated","type":"event"},{"anonymous":false,"inputs":[{"indexed":true,"internalType":"uint256","name":"tradeId","type":"uint256"},{"indexed":true,"internalType":"address","name":"buyer","type":"address"},{"indexed":false,"internalType":"uint256","name":"pgsAtExecution","type":"uint256"}],"name":"TradeFilled","type":"event"},{"inputs":[],"name":"MIN_TRADE_AMOUNT","outputs":[{"internalType":"uint256","name":"","type":"uint256"}],"stateMutability":"view","type":"function"},{"inputs":[],"name":"PGS_THRESHOLD","outputs":[{"internalType":"uint256","name":"","type":"uint256"}],"stateMutability":"view","type":"function"},{"inputs":[{"internalType":"uint256","name":"_forecastTimestamp","type":"uint256"},{"internalType":"uint256","name":"_energyMWh","type":"uint256"},{"internalType":"uint256","name":"_pricePerMWh","type":"uint256"}],"name":"createTrade","outputs":[{"internalType":"uint256","name":"tradeId","type":"uint256"}],"stateMutability":"nonpayable","type":"function"},{"inputs":[{"internalType":"address","name":"","type":"address"}],"name":"escrowBalance","outputs":[{"internalType":"uint256","name":"","type":"uint256"}],"stateMutability":"view","type":"function"},{"inputs":[{"internalType":"uint256","name":"_tradeId","type":"uint256"}],"name":"fillTrade","outputs":[],"stateMutability":"payable","type":"function"},{"inputs":[{"internalType":"uint256","name":"_forecastTimestamp","type":"uint256"}],"name":"isEligible","outputs":[{"internalType":"bool","name":"","type":"bool"}],"stateMutability":"view","type":"function"},{"inputs":[],"name":"nextTradeId","outputs":[{"internalType":"uint256","name":"","type":"uint256"}],"stateMutability":"view","type":"function"},{"inputs":[],"name":"predictionStorage","outputs":[{"internalType":"contract PredictionStorage","name":"","type":"address"}],"stateMutability":"view","type":"function"},{"inputs":[{"internalType":"uint256","name":"","type":"uint256"}],"name":"trades","outputs":[{"internalType":"uint256","name":"id","type":"uint256"},{"internalType":"address","name":"seller","type":"address"},{"internalType":"uint256","name":"forecastTimestamp","type":"uint256"},{"internalType":"uint256","name":"energyMWh","type":"uint256"},{"internalType":"uint256","name":"pricePerMWh","type":"uint256"},{"internalType":"bool","name":"active","type":"bool"},{"internalType":"bool","name":"filled","type":"bool"},{"internalType":"address","name":"buyer","type":"address"}],"stateMutability":"view","type":"function"},{"inputs":[],"name":"withdrawEscrow","outputs":[],"stateMutability":"nonpayable","type":"function"}],"evm":{"bytecode":{"linkReferences":{},"object":"608060405234801561001057600080fd5b50604051610bc6380380610bc683398101604081905261002f91610054565b600080546001600160a01b0319166001600160a01b0392909216919091179055610084565b60006020828403121561006657600080fd5b81516001600160a01b038116811461007d57600080fd5b9392505050565b610b33806100936000396000f3fe6080604052600436106100915760003560e01c806331b7d4131161005957806331b7d4131461020457806355af63531461021f5780635ffe3a3d1461024c5780636cd6e7b214610263578063813ad0831461027657600080fd5b8063053b56c0146100965780630af52133146100cb57806316d167d4146100ef5780631e6c598e14610127578063240db1cd146101e4575b600080fd5b3480156100a257600080fd5b506100b66100b13660046109db565b61028c565b60405190151581526020015b60405180910390f35b3480156100d757600080fd5b506100e16105dc81565b6040519081526020016100c2565b3480156100fb57600080fd5b5060005461010f906001600160a01b031681565b6040516001600160a01b0390911681526020016100c2565b34801561013357600080fd5b5061019a6101423660046109db565b600260208190526000918252604090912080546001820154928201546003830154600484015460059094015492946001600160a01b0390811694929391929160ff808216926101008304909116916201000090041688565b604080519889526001600160a01b0397881660208a015288019590955260608701939093526080860191909152151560a0850152151560c08401521660e0820152610100016100c2565b3480156101f057600080fd5b506100e16101ff3660046109f4565b610304565b34801561021057600080fd5b506100e166038d7ea4c6800081565b34801561022b57600080fd5b506100e161023a366004610a20565b60036020526000908152604090205481565b34801561025857600080fd5b506102616105a8565b005b6102616102713660046109db565b61066d565b34801561028257600080fd5b506100e160015481565b600080546040516343f1a6a960e11b8152600481018490526105dc916001600160a01b0316906387e34d5290602401602060405180830381865afa1580156102d8573d6000803e3d6000fd5b505050506040513d601f19601f820116820180604052508101906102fc9190610a50565b101592915050565b600080831161035a5760405162461bcd60e51b815260206004820152601760248201527f456e65726779206d75737420626520706f73697469766500000000000000000060448201526064015b60405180910390fd5b600082116103a35760405162461bcd60e51b81526020600482015260166024820152755072696365206d75737420626520706f73697469766560501b6044820152606401610351565b600080546040516343f1a6a960e11b8152600481018790526001600160a01b03909116906387e34d5290602401602060405180830381865afa1580156103ed573d6000803e3d6000fd5b505050506040513d601f19601f820116820180604052508101906104119190610a50565b90506105dc81101561047a5760405162461bcd60e51b815260206004820152602c60248201527f5047532062656c6f77207468726573686f6c643a207363686564756c696e672060448201526b6e6f7420656c696769626c6560a01b6064820152608401610351565b6001805490600061048a83610a7f565b909155506040805161010080820183528382523360208084018281528486018c815260608087018d8152608088018d8152600160a08a01818152600060c08c0181815260e08d018281528f83526002808c52928f90209d518e559851938d0180546001600160a01b0319166001600160a01b039586161790559651908c0155925160038b0155905160048a01559051600590980180549351945161ffff1990941698151561ff001916989098179315159096029290921762010000600160b01b0319166201000091909516029390931790935583518a8152928301899052928201879052929450909184917f2245785869ef30e7963765bb4d74cd09d61e13334f2c97be491a4a29a93584ab910160405180910390a3509392505050565b33600090815260036020526040902054806105f95760405162461bcd60e51b81526020600482015260116024820152704e6f20657363726f772062616c616e636560781b6044820152606401610351565b336000818152600360205260408082208290555183156108fc0291849190818181858888f19350505050158015610634573d6000803e3d6000fd5b5060405181815233907f67ba03b899c1b0009c08c2717653a5a03a8730cc17a1a8c0c57b4728991672f39060200160405180910390a250565b6000818152600260205260409020600581015460ff166106c25760405162461bcd60e51b815260206004820152601060248201526f5472616465206e6f742061637469766560801b6044820152606401610351565b6005810154610100900460ff16156107135760405162461bcd60e51b8152602060048201526014602482015273151c98591948185b1c9958591e48199a5b1b195960621b6044820152606401610351565b60018101546001600160a01b031633036107675760405162461bcd60e51b815260206004820152601560248201527443616e6e6f742066696c6c206f776e20747261646560581b6044820152606401610351565b6000805460028301546040516343f1a6a960e11b81526001600160a01b03909216916387e34d529161079f9160040190815260200190565b602060405180830381865afa1580156107bc573d6000803e3d6000fd5b505050506040513d601f19601f820116820180604052508101906107e09190610a50565b90506105dc8110156108a25760058201805460ff1916905560405183907f9ebdd36a46a39796abf1dc57506235e781ccb3f131b9f8a1559114685ca4dace9061086190848152604060208201819052601b908201527f5047532064726f707065642062656c6f77207468726573686f6c640000000000606082015260800190565b60405180910390a2341561089d5760405133903480156108fc02916000818181858888f1935050505015801561089b573d6000803e3d6000fd5b505b505050565b60006103e8836004015484600301546108bb9190610a98565b6108c59190610ab5565b90508034101561090e5760405162461bcd60e51b8152602060048201526014602482015273125b9cdd59999a58da595b9d081c185e5b595b9d60621b6044820152606401610351565b6005830180546201000033026001600160b01b03199091161761010017905560018301546001600160a01b031660009081526003602052604081208054839290610959908490610ad7565b90915550503481101561099e57336108fc6109748334610aea565b6040518115909202916000818181858888f1935050505015801561099c573d6000803e3d6000fd5b505b604051828152339085907f9611a8c4841b81a17b98f08a20f75125e6d225511950cb2a00fd3bf7fb2111bd9060200160405180910390a350505050565b6000602082840312156109ed57600080fd5b5035919050565b600080600060608486031215610a0957600080fd5b505081359360208301359350604090920135919050565b600060208284031215610a3257600080fd5b81356001600160a01b0381168114610a4957600080fd5b9392505050565b600060208284031215610a6257600080fd5b5051919050565b634e487b7160e01b600052601160045260246000fd5b600060018201610a9157610a91610a69565b5060010190565b8082028115828204841417610aaf57610aaf610a69565b92915050565b600082610ad257634e487b7160e01b600052601260045260246000fd5b500490565b80820180821115610aaf57610aaf610a69565b81810381811115610aaf57610aaf610a6956fea2646970667358221220597fa2695943dbc55ef92468e0256e867ba19247f3356311a08c706a02a0744f64736f6c63430008180033","opcodes":"PUSH1 0x80 PUSH1 0x40 MSTORE CALLVALUE DUP1 ISZERO PUSH2 0x10 JUMPI PUSH1 0x0 DUP1 REVERT JUMPDEST POP PUSH1 0x40 MLOAD PUSH2 0xBC6 CODESIZE SUB DUP1 PUSH2 0xBC6 DUP4 CODECOPY DUP2 ADD PUSH1 0x40 DUP2 SWAP1 MSTORE PUSH2 0x2F SWAP2 PUSH2 0x54 JUMP JUMPDEST PUSH1 0x0 DUP1 SLOAD PUSH1 0x1 PUSH1 0x1 PUSH1 0xA0 SHL SUB NOT AND PUSH1 0x1 PUSH1 0x1 PUSH1 0xA0 SHL SUB SWAP3 SWAP1 SWAP3 AND SWAP2 SWAP1 SWAP2 OR SWAP1 SSTORE PUSH2 0x84 JUMP JUMPDEST PUSH1 0x0 PUSH1 0x20 DUP3 DUP5 SUB SLT ISZERO PUSH2 0x66 JUMPI PUSH1 0x0 DUP1 REVERT JUMPDEST DUP2 MLOAD PUSH1 0x1 PUSH1 0x1 PUSH1 0xA0 SHL SUB DUP2 AND DUP2 EQ PUSH2 0x7D JUMPI PUSH1 0x0 DUP1 REVERT JUMPDEST SWAP4 SWAP3 POP POP POP JUMP JUMPDEST PUSH2 0xB33 DUP1 PUSH2 0x93 PUSH1 0x0 CODECOPY PUSH1 0x0 RETURN INVALID PUSH1 0x80 PUSH1 0x40 MSTORE PUSH1 0x4 CALLDATASIZE LT PUSH2 0x91 JUMPI PUSH1 0x0 CALLDATALOAD PUSH1 0xE0 SHR DUP1 PUSH4 0x31B7D413 GT PUSH2 0x59 JUMPI DUP1 PUSH4 0x31B7D413 EQ PUSH2 0x204 JUMPI DUP1 PUSH4 0x55AF6353 EQ PUSH2 0x21F JUMPI DUP1 PUSH4 0x5FFE3A3D EQ PUSH2 0x24C JUMPI DUP1 PUSH4 0x6CD6E7B2 EQ PUSH2 0x263 JUMPI DUP1 PUSH4 0x813AD083 EQ PUSH2 0x276 JUMPI PUSH1 0x0 DUP1 REVERT JUMPDEST DUP1 PUSH4 0x53B56C0 EQ PUSH2 0x96 JUMPI DUP1 PUSH4 0xAF52133 EQ PUSH2 0xCB JUMPI DUP1 PUSH4 0x16D167D4 EQ PUSH2 0xEF JUMPI DUP1 PUSH4 0x1E6C598E EQ PUSH2 0x127 JUMPI DUP1 PUSH4 0x240DB1CD EQ PUSH2 0x1E4 JUMPI JUMPDEST PUSH1 0x0 DUP1 REVERT JUMPDEST CALLVALUE DUP1 ISZERO PUSH2 0xA2 JUMPI PUSH1 0x0 DUP1 REVERT JUMPDEST POP PUSH2 0xB6 PUSH2 0xB1 CALLDATASIZE PUSH1 0x4 PUSH2 0x9DB JUMP JUMPDEST PUSH2 0x28C JUMP JUMPDEST PUSH1 0x40 MLOAD SWAP1 ISZERO ISZERO DUP2 MSTORE PUSH1 0x20 ADD JUMPDEST PUSH1 0x40 MLOAD DUP1 SWAP2 SUB SWAP1 RETURN JUMPDEST CALLVALUE DUP1 ISZERO PUSH2 0xD7 JUMPI PUSH1 0x0 DUP1 REVERT JUMPDEST POP PUSH2 0xE1 PUSH2 0x5DC DUP2 JUMP JUMPDEST PUSH1 0x40 MLOAD SWAP1 DUP2 MSTORE PUSH1 0x20 ADD PUSH2 0xC2 JUMP JUMPDEST CALLVALUE DUP1 ISZERO PUSH2 0xFB JUMPI PUSH1 0x0 DUP1 REVERT JUMPDEST POP PUSH1 0x0 SLOAD PUSH2 0x10F SWAP1 PUSH1 0x1 PUSH1 0x1 PUSH1 0xA0 SHL SUB AND DUP2 JUMP JUMPDEST PUSH1 0x40 MLOAD PUSH1 0x1 PUSH1 0x1 PUSH1 0xA0 SHL SUB SWAP1 SWAP2 AND DUP2 MSTORE PUSH1 0x20 ADD PUSH2 0xC2 JUMP JUMPDEST CALLVALUE DUP1 ISZERO PUSH2 0x133 JUMPI PUSH1 0x0 DUP1 REVERT JUMPDEST POP PUSH2 0x19A PUSH2 0x142 CALLDATASIZE PUSH1 0x4 PUSH2 0x9DB JUMP JUMPDEST PUSH1 0x2 PUSH1 0x20 DUP2 SWAP1 MSTORE PUSH1 0x0 SWAP2 DUP3 MSTORE PUSH1 0x40 SWAP1 SWAP2 KECCAK256 DUP1 SLOAD PUSH1 0x1 DUP3 ADD SLOAD SWAP3 DUP3 ADD SLOAD PUSH1 0x3 DUP4 ADD SLOAD PUSH1 0x4 DUP5 ADD SLOAD PUSH1 0x5 SWAP1 SWAP5 ADD SLOAD SWAP3 SWAP5 PUSH1 0x1 PUSH1 0x1 PUSH1 0xA0 SHL SUB SWAP1 DUP2 AND SWAP5 SWAP3 SWAP4 SWAP2 SWAP3 SWAP2 PUSH1 0xFF DUP1 DUP3 AND SWAP3 PUSH2 0x100 DUP4 DIV SWAP1 SWAP2 AND SWAP2 PUSH3 0x10000 SWAP1 DIV AND DUP9 JUMP JUMPDEST PUSH1 0x40 DUP1 MLOAD SWAP9 DUP10 MSTORE PUSH1 0x1 PUSH1 0x1 PUSH1 0xA0 SHL SUB SWAP8 DUP9 AND PUSH1 0x20 DUP11 ADD MSTORE DUP9 ADD SWAP6 SWAP1 SWAP6 MSTORE PUSH1 0x60 DUP8 ADD SWAP4 SWAP1 SWAP4 MSTORE PUSH1 0x80 DUP7 ADD SWAP2 SWAP1 SWAP2 MSTORE ISZERO ISZERO PUSH1 0xA0 DUP6 ADD MSTORE ISZERO ISZERO PUSH1 0xC0 DUP5 ADD MSTORE AND PUSH1 0xE0 DUP3 ADD MSTORE PUSH2 0x100 ADD PUSH2 0xC2 JUMP JUMPDEST CALLVALUE DUP1 ISZERO PUSH2 0x1F0 JUMPI PUSH1 0x0 DUP1 REVERT JUMPDEST POP PUSH2 0xE1 PUSH2 0x1FF CALLDATASIZE PUSH1 0x4 PUSH2 0x9F4 JUMP JUMPDEST PUSH2 0x304 JUMP JUMPDEST CALLVALUE DUP1 ISZERO PUSH2 0x210 JUMPI PUSH1 0x0 DUP1 REVERT JUMPDEST POP PUSH2 0xE1 PUSH7 0x38D7EA4C68000 DUP2 JUMP JUMPDEST CALLVALUE DUP1 ISZERO PUSH2 0x22B JUMPI PUSH1 0x0 DUP1 REVERT JUMPDEST POP PUSH2 0xE1 PUSH2 0x23A CALLDATASIZE PUSH1 0x4 PUSH2 0xA20 JUMP JUMPDEST PUSH1 0x3 PUSH1 0x20 MSTORE PUSH1 0x0 SWAP1 DUP2 MSTORE PUSH1 0x40 SWAP1 KECCAK256 SLOAD DUP2 JUMP JUMPDEST CALLVALUE DUP1 ISZERO PUSH2 0x258 JUMPI PUSH1 0x0 DUP1 REVERT JUMPDEST POP PUSH2 0x261 PUSH2 0x5A8 JUMP JUMPDEST STOP JUMPDEST PUSH2 0x261 PUSH2 0x271 CALLDATASIZE PUSH1 0x4 PUSH2 0x9DB JUMP JUMPDEST PUSH2 0x66D JUMP JUMPDEST CALLVALUE DUP1 ISZERO PUSH2 0x282 JUMPI PUSH1 0x0 DUP1 REVERT JUMPDEST POP PUSH2 0xE1 PUSH1 0x1 SLOAD DUP2 JUMP JUMPDEST PUSH1 0x0 DUP1 SLOAD PUSH1 0x40 MLOAD PUSH4 0x43F1A6A9 PUSH1 0xE1 SHL DUP2 MSTORE PUSH1 0x4 DUP2 ADD DUP5 SWAP1 MSTORE PUSH2 0x5DC SWAP2 PUSH1 0x1 PUSH1 0x1 PUSH1 0xA0 SHL SUB AND SWAP1 PUSH4 0x87E34D52 SWAP1 PUSH1 0x24 ADD PUSH1 0x20 PUSH1 0x40 MLOAD DUP1 DUP4 SUB DUP2 DUP7 GAS STATICCALL ISZERO DUP1 ISZERO PUSH2 0x2D8 JUMPI RETURNDATASIZE PUSH1 0x0 DUP1 RETURNDATACOPY RETURNDATASIZE PUSH1 0x0 REVERT JUMPDEST POP POP POP POP PUSH1 0x40 MLOAD RETURNDATASIZE PUSH1 0x1F NOT PUSH1 0x1F DUP3 ADD AND DUP3 ADD DUP1 PUSH1 0x40 MSTORE POP DUP2 ADD SWAP1 PUSH2 0x2FC SWAP2 SWAP1 PUSH2 0xA50 JUMP JUMPDEST LT ISZERO SWAP3 SWAP2 POP POP JUMP JUMPDEST PUSH1 0x0 DUP1 DUP4 GT PUSH2 0x35A JUMPI PUSH1 0x40 MLOAD PUSH3 0x461BCD PUSH1 0xE5 SHL DUP2 MSTORE PUSH1 0x20 PUSH1 0x4 DUP3 ADD MSTORE PUSH1 0x17 PUSH1 0x24 DUP3 ADD MSTORE PUSH32 0x456E65726779206D75737420626520706F736974697665000000000000000000 PUSH1 0x44 DUP3 ADD MSTORE PUSH1 0x64 ADD JUMPDEST PUSH1 0x40 MLOAD DUP1 SWAP2 SUB SWAP1 REVERT JUMPDEST PUSH1 0x0 DUP3 GT PUSH2 0x3A3 JUMPI PUSH1 0x40 MLOAD PUSH3 0x461BCD PUSH1 0xE5 SHL DUP2 MSTORE PUSH1 0x20 PUSH1 0x4 DUP3 ADD MSTORE PUSH1 0x16 PUSH1 0x24 DUP3 ADD MSTORE PUSH22 0x5072696365206D75737420626520706F736974697665 PUSH1 0x50 SHL PUSH1 0x44 DUP3 ADD MSTORE PUSH1 0x64 ADD PUSH2 0x351 JUMP JUMPDEST PUSH1 0x0 DUP1 SLOAD PUSH1 0x40 MLOAD PUSH4 0x43F1A6A9 PUSH1 0xE1 SHL DUP2 MSTORE PUSH1 0x4 DUP2 ADD DUP8 SWAP1 MSTORE PUSH1 0x1 PUSH1 0x1 PUSH1 0xA0 SHL SUB SWAP1 SWAP2 AND SWAP1 PUSH4 0x87E34D52 SWAP1 PUSH1 0x24 ADD PUSH1 0x20 PUSH1 0x40 MLOAD DUP1 DUP4 SUB DUP2 DUP7 GAS STATICCALL ISZERO DUP1 ISZERO PUSH2 0x3ED JUMPI RETURNDATASIZE PUSH1 0x0 DUP1 RETURNDATACOPY RETURNDATASIZE PUSH1 0x0 REVERT JUMPDEST POP POP POP POP PUSH1 0x40 MLOAD RETURNDATASIZE PUSH1 0x1F NOT PUSH1 0x1F DUP3 ADD AND DUP3 ADD DUP1 PUSH1 0x40 MSTORE POP DUP2 ADD SWAP1 PUSH2 0x411 SWAP2 SWAP1 PUSH2 0xA50 JUMP JUMPDEST SWAP1 POP PUSH2 0x5DC DUP2 LT ISZERO PUSH2 0x47A JUMPI PUSH1 0x40 MLOAD PUSH3 0x461BCD PUSH1 0xE5 SHL DUP2 MSTORE PUSH1 0x20 PUSH1 0x4 DUP3 ADD MSTORE PUSH1 0x2C PUSH1 0x24 DUP3 ADD MSTORE PUSH32 0x5047532062656C6F77207468726573686F6C643A207363686564756C696E6720 PUSH1 0x44 DUP3 ADD MSTORE PUSH12 0x6E6F7420656C696769626C65 PUSH1 0xA0 SHL PUSH1 0x64 DUP3 ADD MSTORE PUSH1 0x84 ADD PUSH2 0x351 JUMP JUMPDEST PUSH1 0x1 DUP1 SLOAD SWAP1 PUSH1 0x0 PUSH2 0x48A DUP4 PUSH2 0xA7F JUMP JUMPDEST SWAP1 SWAP2 SSTORE POP PUSH1 0x40 DUP1 MLOAD PUSH2 0x100 DUP1 DUP3 ADD DUP4 MSTORE DUP4 DUP3 MSTORE CALLER PUSH1 0x20 DUP1 DUP5 ADD DUP3 DUP2 MSTORE DUP5 DUP7 ADD DUP13 DUP2 MSTORE PUSH1 0x60 DUP1 DUP8 ADD DUP14 DUP2 MSTORE PUSH1 0x80 DUP9 ADD DUP14 DUP2 MSTORE PUSH1 0x1 PUSH1 0xA0 DUP11 ADD DUP2 DUP2 MSTORE PUSH1 0x0 PUSH1 0xC0 DUP13 ADD DUP2 DUP2 MSTORE PUSH1 0xE0 DUP14 ADD DUP3 DUP2 MSTORE DUP16 DUP4 MSTORE PUSH1 0x2 DUP1 DUP13 MSTORE SWAP3 DUP16 SWAP1 KECCAK256 SWAP14 MLOAD DUP15 SSTORE SWAP9 MLOAD SWAP4 DUP14 ADD DUP1 SLOAD PUSH1 0x1 PUSH1 0x1 PUSH1 0xA0 SHL SUB NOT AND PUSH1 0x1 PUSH1 0x1 PUSH1 0xA0 SHL SUB SWAP6 DUP7 AND OR SWAP1 SSTORE SWAP7 MLOAD SWAP1 DUP13 ADD SSTORE SWAP3 MLOAD PUSH1 0x3 DUP12 ADD SSTORE SWAP1 MLOAD PUSH1 0x4 DUP11 ADD SSTORE SWAP1 MLOAD PUSH1 0x5 SWAP1 SWAP9 ADD DUP1 SLOAD SWAP4 MLOAD SWAP5 MLOAD PUSH2 0xFFFF NOT SWAP1 SWAP5 AND SWAP9 ISZERO ISZERO PUSH2 0xFF00 NOT AND SWAP9 SWAP1 SWAP9 OR SWAP4 ISZERO ISZERO SWAP1 SWAP7 MUL SWAP3 SWAP1 SWAP3 OR PUSH3 0x10000 PUSH1 0x1 PUSH1 0xB0 SHL SUB NOT AND PUSH3 0x10000 SWAP2 SWAP1 SWAP6 AND MUL SWAP4 SWAP1 SWAP4 OR SWAP1 SWAP4 SSTORE DUP4 MLOAD DUP11 DUP2 MSTORE SWAP3 DUP4 ADD DUP10 SWAP1 MSTORE SWAP3 DUP3 ADD DUP8 SWAP1 MSTORE SWAP3 SWAP5 POP SWAP1 SWAP2 DUP5 SWAP2 PUSH32 0x2245785869EF30E7963765BB4D74CD09D61E13334F2C97BE491A4A29A93584AB SWAP2 ADD PUSH1 0x40 MLOAD DUP1 SWAP2 SUB SWAP1 LOG3 POP SWAP4 SWAP3 POP POP POP JUMP JUMPDEST CALLER PUSH1 0x0 SWAP1 DUP2 MSTORE PUSH1 0x3 PUSH1 0x20 MSTORE PUSH1 0x40 SWAP1 KECCAK256 SLOAD DUP1 PUSH2 0x5F9 JUMPI PUSH1 0x40 MLOAD PUSH3 0x461BCD PUSH1 0xE5 SHL DUP2 MSTORE PUSH1 0x20 PUSH1 0x4 DUP3 ADD MSTORE PUSH1 0x11 PUSH1 0x24 DUP3 ADD MSTORE PUSH17 0x4E6F20657363726F772062616C616E6365 PUSH1 0x78 SHL PUSH1 0x44 DUP3 ADD MSTORE PUSH1 0x64 ADD PUSH2 0x351 JUMP JUMPDEST CALLER PUSH1 0x0 DUP2 DUP2 MSTORE PUSH1 0x3 PUSH1 0x20 MSTORE PUSH1 0x40 DUP1 DUP3 KECCAK256 DUP3 SWAP1 SSTORE MLOAD DUP4 ISZERO PUSH2 0x8FC MUL SWAP2 DUP5 SWAP2 SWAP1 DUP2 DUP2 DUP2 DUP6 DUP9 DUP9 CALL SWAP4 POP POP POP POP ISZERO DUP1 ISZERO PUSH2 0x634 JUMPI RETURNDATASIZE PUSH1 0x0 DUP1 RETURNDATACOPY RETURNDATASIZE PUSH1 0x0 REVERT JUMPDEST POP PUSH1 0x40 MLOAD DUP2 DUP2 MSTORE CALLER SWAP1 PUSH32 0x67BA03B899C1B0009C08C2717653A5A03A8730CC17A1A8C0C57B4728991672F3 SWAP1 PUSH1 0x20 ADD PUSH1 0x40 MLOAD DUP1 SWAP2 SUB SWAP1 LOG2 POP JUMP JUMPDEST PUSH1 0x0 DUP2 DUP2 MSTORE PUSH1 0x2 PUSH1 0x20 MSTORE PUSH1 0x40 SWAP1 KECCAK256 PUSH1 0x5 DUP2 ADD SLOAD PUSH1 0xFF AND PUSH2 0x6C2 JUMPI PUSH1 0x40 MLOAD PUSH3 0x461BCD PUSH1 0xE5 SHL DUP2 MSTORE PUSH1 0x20 PUSH1 0x4 DUP3 ADD MSTORE PUSH1 0x10 PUSH1 0x24 DUP3 ADD MSTORE PUSH16 0x5472616465206E6F7420616374697665 PUSH1 0x80 SHL PUSH1 0x44 DUP3 ADD MSTORE PUSH1 0x64 ADD PUSH2 0x351 JUMP JUMPDEST PUSH1 0x5 DUP2 ADD SLOAD PUSH2 0x100 SWAP1 DIV PUSH1 0xFF AND ISZERO PUSH2 0x713 JUMPI PUSH1 0x40 MLOAD PUSH3 0x461BCD PUSH1 0xE5 SHL DUP2 MSTORE PUSH1 0x20 PUSH1 0x4 DUP3 ADD MSTORE PUSH1 0x14 PUSH1 0x24 DUP3 ADD MSTORE PUSH20 0x151C98591948185B1C9958591E48199A5B1B1959 PUSH1 0x62 SHL PUSH1 0x44 DUP3 ADD MSTORE PUSH1 0x64 ADD PUSH2 0x351 JUMP JUMPDEST PUSH1 0x1 DUP2 ADD SLOAD PUSH1 0x1 PUSH1 0x1 PUSH1 0xA0 SHL SUB AND CALLER SUB PUSH2 0x767 JUMPI PUSH1 0x40 MLOAD PUSH3 0x461BCD PUSH1 0xE5 SHL DUP2 MSTORE PUSH1 0x20 PUSH1 0x4 DUP3 ADD MSTORE PUSH1 0x15 PUSH1 0x24 DUP3 ADD MSTORE PUSH21 0x43616E6E6F742066696C6C206F776E207472616465 PUSH1 0x58 SHL PUSH1 0x44 DUP3 ADD MSTORE PUSH1 0x64 ADD PUSH2 0x351 JUMP JUMPDEST PUSH1 0x0 DUP1 SLOAD PUSH1 0x2 DUP4 ADD SLOAD PUSH1 0x40 MLOAD PUSH4 0x43F1A6A9 PUSH1 0xE1 SHL DUP2 MSTORE PUSH1 0x1 PUSH1 0x1 PUSH1 0xA0 SHL SUB SWAP1 SWAP3 AND SWAP2 PUSH4 0x87E34D52 SWAP2 PUSH2 0x79F SWAP2 PUSH1 0x4 ADD SWAP1 DUP2 MSTORE PUSH1 0x20 ADD SWAP1 JUMP JUMPDEST PUSH1 0x20 PUSH1 0x40 MLOAD DUP1 DUP4 SUB DUP2 DUP7 GAS STATICCALL ISZERO DUP1 ISZERO PUSH2 0x7BC JUMPI RETURNDATASIZE PUSH1 0x0 DUP1 RETURNDATACOPY RETURNDATASIZE PUSH1 0x0 REVERT JUMPDEST POP POP POP POP PUSH1 0x40 MLOAD RETURNDATASIZE PUSH1 0x1F NOT PUSH1 0x1F DUP3 ADD AND DUP3 ADD DUP1 PUSH1 0x40 MSTORE POP DUP2 ADD SWAP1 PUSH2 0x7E0 SWAP2 SWAP1 PUSH2 0xA50 JUMP JUMPDEST SWAP1 POP PUSH2 0x5DC DUP2 LT ISZERO PUSH2 0x8A2 JUMPI PUSH1 0x5 DUP3 ADD DUP1 SLOAD PUSH1 0xFF NOT AND SWAP1 SSTORE PUSH1 0x40 MLOAD DUP4 SWAP1 PUSH32 0x9EBDD36A46A39796ABF1DC57506235E781CCB3F131B9F8A1559114685CA4DACE SWAP1 PUSH2 0x861 SWAP1 DUP5 DUP2 MSTORE PUSH1 0x40 PUSH1 0x20 DUP3 ADD DUP2 SWAP1 MSTORE PUSH1 0x1B SWAP1 DUP3 ADD MSTORE PUSH32 0x5047532064726F707065642062656C6F77207468726573686F6C640000000000 PUSH1 0x60 DUP3 ADD MSTORE PUSH1 0x80 ADD SWAP1 JUMP JUMPDEST PUSH1 0x40 MLOAD DUP1 SWAP2 SUB SWAP1 LOG2 CALLVALUE ISZERO PUSH2 0x89D JUMPI PUSH1 0x40 MLOAD CALLER SWAP1 CALLVALUE DUP1 ISZERO PUSH2 0x8FC MUL SWAP2 PUSH1 0x0 DUP2 DUP2 DUP2 DUP6 DUP9 DUP9 CALL SWAP4 POP POP POP POP ISZERO DUP1 ISZERO PUSH2 0x89B JUMPI RETURNDATASIZE PUSH1 0x0 DUP1 RETURNDATACOPY RETURNDATASIZE PUSH1 0x0 REVERT JUMPDEST POP JUMPDEST POP POP POP JUMP JUMPDEST PUSH1 0x0 PUSH2 0x3E8 DUP4 PUSH1 0x4 ADD SLOAD DUP5 PUSH1 0x3 ADD SLOAD PUSH2 0x8BB SWAP2 SWAP1 PUSH2 0xA98 JUMP JUMPDEST PUSH2 0x8C5 SWAP2 SWAP1 PUSH2 0xAB5 JUMP JUMPDEST SWAP1 POP DUP1 CALLVALUE LT ISZERO PUSH2 0x90E JUMPI PUSH1 0x40 MLOAD PUSH3 0x461BCD PUSH1 0xE5 SHL DUP2 MSTORE PUSH1 0x20 PUSH1 0x4 DUP3 ADD MSTORE PUSH1 0x14 PUSH1 0x24 DUP3 ADD MSTORE PUSH20 0x125B9CDD59999A58DA595B9D081C185E5B595B9D PUSH1 0x62 SHL PUSH1 0x44 DUP3 ADD MSTORE PUSH1 0x64 ADD PUSH2 0x351 JUMP JUMPDEST PUSH1 0x5 DUP4 ADD DUP1 SLOAD PUSH3 0x10000 CALLER MUL PUSH1 0x1 PUSH1 0x1 PUSH1 0xB0 SHL SUB NOT SWAP1 SWAP2 AND OR PUSH2 0x100 OR SWAP1 SSTORE PUSH1 0x1 DUP4 ADD SLOAD PUSH1 0x1 PUSH1 0x1 PUSH1 0xA0 SHL SUB AND PUSH1 0x0 SWAP1 DUP2 MSTORE PUSH1 0x3 PUSH1 0x20 MSTORE PUSH1 0x40 DUP2 KECCAK256 DUP1 SLOAD DUP4 SWAP3 SWAP1 PUSH2 0x959 SWAP1 DUP5 SWAP1 PUSH2 0xAD7 JUMP JUMPDEST SWAP1 SWAP2 SSTORE POP POP CALLVALUE DUP2 LT ISZERO PUSH2 0x99E JUMPI CALLER PUSH2 0x8FC PUSH2 0x974 DUP4 CALLVALUE PUSH2 0xAEA JUMP JUMPDEST PUSH1 0x40 MLOAD DUP2 ISZERO SWAP1 SWAP3 MUL SWAP2 PUSH1 0x0 DUP2 DUP2 DUP2 DUP6 DUP9 DUP9 CALL SWAP4 POP POP POP POP ISZERO DUP1 ISZERO PUSH2 0x99C JUMPI RETURNDATASIZE PUSH1 0x0 DUP1 RETURNDATACOPY RETURNDATASIZE PUSH1 0x0 REVERT JUMPDEST POP JUMPDEST PUSH1 0x40 MLOAD DUP3 DUP2 MSTORE CALLER SWAP1 DUP6 SWAP1 PUSH32 0x9611A8C4841B81A17B98F08A20F75125E6D225511950CB2A00FD3BF7FB2111BD SWAP1 PUSH1 0x20 ADD PUSH1 0x40 MLOAD DUP1 SWAP2 SUB SWAP1 LOG3 POP POP POP POP JUMP JUMPDEST PUSH1 0x0 PUSH1 0x20 DUP3 DUP5 SUB SLT ISZERO PUSH2 0x9ED JUMPI PUSH1 0x0 DUP1 REVERT JUMPDEST POP CALLDATALOAD SWAP2 SWAP1 POP JUMP JUMPDEST PUSH1 0x0 DUP1 PUSH1 0x0 PUSH1 0x60 DUP5 DUP7 SUB SLT ISZERO PUSH2 0xA09 JUMPI PUSH1 0x0 DUP1 REVERT JUMPDEST POP POP DUP2 CALLDATALOAD SWAP4 PUSH1 0x20 DUP4 ADD CALLDATALOAD SWAP4 POP PUSH1 0x40 SWAP1 SWAP3 ADD CALLDATALOAD SWAP2 SWAP1 POP JUMP JUMPDEST PUSH1 0x0 PUSH1 0x20 DUP3 DUP5 SUB SLT ISZERO PUSH2 0xA32 JUMPI PUSH1 0x0 DUP1 REVERT JUMPDEST DUP2 CALLDATALOAD PUSH1 0x1 PUSH1 0x1 PUSH1 0xA0 SHL SUB DUP2 AND DUP2 EQ PUSH2 0xA49 JUMPI PUSH1 0x0 DUP1 REVERT JUMPDEST SWAP4 SWAP3 POP POP POP JUMP JUMPDEST PUSH1 0x0 PUSH1 0x20 DUP3 DUP5 SUB SLT ISZERO PUSH2 0xA62 JUMPI PUSH1 0x0 DUP1 REVERT JUMPDEST POP MLOAD SWAP2 SWAP1 POP JUMP JUMPDEST PUSH4 0x4E487B71 PUSH1 0xE0 SHL PUSH1 0x0 MSTORE PUSH1 0x11 PUSH1 0x4 MSTORE PUSH1 0x24 PUSH1 0x0 REVERT JUMPDEST PUSH1 0x0 PUSH1 0x1 DUP3 ADD PUSH2 0xA91 JUMPI PUSH2 0xA91 PUSH2 0xA69 JUMP JUMPDEST POP PUSH1 0x1 ADD SWAP1 JUMP JUMPDEST DUP1 DUP3 MUL DUP2 ISZERO DUP3 DUP3 DIV DUP5 EQ OR PUSH2 0xAAF JUMPI PUSH2 0xAAF PUSH2 0xA69 JUMP JUMPDEST SWAP3 SWAP2 POP POP JUMP JUMPDEST PUSH1 0x0 DUP3 PUSH2 0xAD2 JUMPI PUSH4 0x4E487B71 PUSH1 0xE0 SHL PUSH1 0x0 MSTORE PUSH1 0x12 PUSH1 0x4 MSTORE PUSH1 0x24 PUSH1 0x0 REVERT JUMPDEST POP DIV SWAP1 JUMP JUMPDEST DUP1 DUP3 ADD DUP1 DUP3 GT ISZERO PUSH2 0xAAF JUMPI PUSH2 0xAAF PUSH2 0xA69 JUMP JUMPDEST DUP2 DUP2 SUB DUP2 DUP2 GT ISZERO PUSH2 0xAAF JUMPI PUSH2 0xAAF PUSH2 0xA69 JUMP INVALID LOG2 PUSH5 0x6970667358 0x22 SLT KECCAK256 MSIZE PUSH32 0xA2695943DBC55EF92468E0256E867BA19247F3356311A08C706A02A0744F6473 PUSH16 0x6C634300081800330000000000000000 "},"methodIdentifiers":{"MIN_TRADE_AMOUNT()":"31b7d413","PGS_THRESHOLD()":"0af52133","createTrade(uint256,uint256,uint256)":"240db1cd","escrowBalance(address)":"55af6353","fillTrade(uint256)":"6cd6e7b2","isEligible(uint256)":"053b56c0","nextTradeId()":"813ad083","predictionStorage()":"16d167d4","trades(uint256)":"1e6c598e","withdrawEscrow()":"5ffe3a3d"}}}}}