{
  "_format": "hh-sol-artifact-1",
  "contractName": "PredictionStorage",
  "sourceName": "contracts/PredictionStorage.sol",
  "abi": [
    {
      "anonymous": false,
      "inputs": [
        {
          "indexed": true,
          "internalType": "uint256",
          "name": "timestamp",
          "type": "uint256"
        },
        {
          "indexed": false,
          "internalType": "bytes32",
          "name": "payloadHash",
          "type": "bytes32"
        },
        {
          "indexed": false,
          "internalType": "string",
          "name": "ipfsCid",
          "type": "string"
        },
        {
          "indexed": false,
          "internalType": "uint256",
          "name": "pgs",
          "type": "uint256"
        },
        {
          "indexed": true,
          "internalType": "address",
          "name": "submitter",
          "type": "address"
        }
      ],
      "name": "ForecastAnchored",
      "type": "event"
    },
    {
      "inputs": [
        {
          "internalType": "uint256",
          "name": "_timestamp",
          "type": "uint256"
        },
        {
          "internalType": "bytes32",
          "name": "_payloadHash",
          "type": "bytes32"
        },
        {
          "internalType": "string",
          "name": "_ipfsCid",
          "type": "string"
        },
        {
          "internalType": "uint256",
          "name": "_pgs",
          "type": "uint256"
        }
      ],
      "name": "anchorForecast",
      "outputs": [],
      "stateMutability": "nonpayable",
      "type": "function"
    },
    {
      "inputs": [
        {
          "internalType": "uint256",
          "name": "",
          "type": "uint256"
        }
      ],
      "name": "anchoredTimestamps",
      "outputs": [
        {
          "internalType": "uint256",
          "name": "",
          "type": "uint256"
        }
      ],
      "stateMutability": "view",
      "type": "function"
    },
    {
      "inputs": [
        {
          "internalType": "uint256",
          "name": "",
          "type": "uint256"
        }
      ],
      "name": "forecasts",
      "outputs": [
        {
          "internalType": "uint256",
          "name": "timestamp",
          "type": "uint256"
        },
        {
          "internalType": "bytes32",
          "name": "payloadHash",
          "type": "bytes32"
        },
        {
          "internalType": "string",
          "name": "ipfsCid",
          "type": "string"
        },
        {
          "internalType": "uint256",
          "name": "pgs",
          "type": "uint256"
        },
        {
          "internalType": "address",
          "name": "submitter",
          "type": "address"
        },
        {
          "internalType": "uint256",
          "name": "blockAnchored",
          "type": "uint256"
        }
      ],
      "stateMutability": "view",
      "type": "function"
    },
    {
      "inputs": [
        {
          "internalType": "uint256",
          "name": "_timestamp",
          "type": "uint256"
        }
      ],
      "name": "getPGS",
      "outputs": [
        {
          "internalType": "uint256",
          "name": "",
          "type": "uint256"
        }
      ],
      "stateMutability": "view",
      "type": "function"
    },
    {
      "inputs": [],
      "name": "totalAnchored",
      "outputs": [
        {
          "internalType": "uint256",
          "name": "",
          "type": "uint256"
        }
      ],
      "stateMutability": "view",
      "type": "function"
    },
    {
      "inputs": [
        {
          "internalType": "uint256",
          "name": "_timestamp",
          "type": "uint256"
        },
        {
          "internalType": "bytes",
          "name": "_payload",
          "type": "bytes"
        }
      ],
      "name": "verifyPayload",
      "outputs": [
        {
          "internalType": "bool",
          "name": "valid",
          "type": "bool"
        }
      ],
      "stateMutability": "view",
      "type": "function"
    }
  ],
  "bytecode": "0x608060405234801561001057600080fd5b50610830806100206000396000f3fe608060405234801561001057600080fd5b50600436106100625760003560e01c80633cb10162146100675780636c51475f1461008d57806387e34d52146100b0578063a212e36f146100d3578063dbd8951b146100db578063f1f2c2cf14610100575b600080fd5b61007a6100753660046104be565b610115565b6040519081526020015b60405180910390f35b6100a061009b366004610520565b610136565b6040519015158152602001610084565b61007a6100be3660046104be565b60009081526020819052604090206003015490565b60015461007a565b6100ee6100e93660046104be565b61016f565b6040516100849695949392919061056c565b61011361010e3660046105ee565b610238565b005b6001818154811061012557600080fd5b600091825260209091200154905081565b6000808383604051610149929190610649565b604080519182900390912060009687526020879052952060010154909414949350505050565b6000602081905290815260409020805460018201546002830180549293919261019790610659565b80601f01602080910402602001604051908101604052809291908181526020018280546101c390610659565b80156102105780601f106101e557610100808354040283529160200191610210565b820191906000526020600020905b8154815290600101906020018083116101f357829003601f168201915b5050505060038301546004840154600590940154929390926001600160a01b03909116915086565b6127108111156102855760405162461bcd60e51b81526020600482015260136024820152720504753206d75737420626520302d313030303606c1b60448201526064015b60405180910390fd5b836102cb5760405162461bcd60e51b8152602060048201526016602482015275115b5c1d1e481a185cda081b9bdd08185b1b1bddd95960521b604482015260640161027c565b816103105760405162461bcd60e51b8152602060048201526015602482015274115b5c1d1e4810d251081b9bdd08185b1b1bddd959605a1b604482015260640161027c565b6000858152602081905260409020600501541561036f5760405162461bcd60e51b815260206004820152601960248201527f466f72656361737420616c726561647920616e63686f72656400000000000000604482015260640161027c565b6040518060c0016040528086815260200185815260200184848080601f016020809104026020016040519081016040528093929190818152602001838380828437600092018290525093855250505060208083018590523360408085019190915243606090940193909352888252818152908290208351815590830151600182015590820151600282019061040490826106fa565b506060820151600382015560808201516004820180546001600160a01b0319166001600160a01b0390921691909117905560a0909101516005909101556001805480820182556000919091527fb10e2d527612073b26eecdfd717e6a320cf44b4afac2b0732d9fcbe2b7fa0cf601859055604051339086907fbb0deceb74fc7f5fff60c9e59144abab815ad20fa48c7ea0c7e8410f551ea188906104af9088908890889088906107ba565b60405180910390a35050505050565b6000602082840312156104d057600080fd5b5035919050565b60008083601f8401126104e957600080fd5b50813567ffffffffffffffff81111561050157600080fd5b60208301915083602082850101111561051957600080fd5b9250929050565b60008060006040848603121561053557600080fd5b83359250602084013567ffffffffffffffff81111561055357600080fd5b61055f868287016104d7565b9497909650939450505050565b8681526000602087602084015260c0604084015286518060c085015260005b818110156105a75788810183015185820160e00152820161058b565b50600060e0828601015260e0601f19601f830116850101925050508460608301526105dd60808301856001600160a01b03169052565b8260a0830152979650505050505050565b60008060008060006080868803121561060657600080fd5b8535945060208601359350604086013567ffffffffffffffff81111561062b57600080fd5b610637888289016104d7565b96999598509660600135949350505050565b8183823760009101908152919050565b600181811c9082168061066d57607f821691505b60208210810361068d57634e487b7160e01b600052602260045260246000fd5b50919050565b634e487b7160e01b600052604160045260246000fd5b601f8211156106f5576000816000526020600020601f850160051c810160208610156106d25750805b601f850160051c820191505b818110156106f1578281556001016106de565b5050505b505050565b815167ffffffffffffffff81111561071457610714610693565b610728816107228454610659565b846106a9565b602080601f83116001811461075d57600084156107455750858301515b600019600386901b1c1916600185901b1785556106f1565b600085815260208120601f198616915b8281101561078c5788860151825594840194600190910190840161076d565b50858210156107aa5787850151600019600388901b60f8161c191681555b5050505050600190811b01905550565b848152606060208201528260608201528284608083013760006080848301015260006080601f19601f86011683010190508260408301529594505050505056fea26469706673582212204d7aabda59d20093b8f1131e233be6df3465c023e5c1edfb528cb42cf3faa4a864736f6c63430008180033",
  "linkReferences": {},
  "deployedLinkReferences": {}
}